:100000000C942A000C9447000C9447000C94470071
:100010000C9447000C9447000C9447000C94470044
:100020000C9447000C9447000C94FB080C945E0958
:100030000C9447000C9447000C9447000C94470024
:100040000C9447000C9447000C9447000C94470014
:100050000C94470011241FBECFE5D8E0DEBFCDBF12
:1000600012E0A0E6B0E0E0E7F6E302C005900D92F2
:10007000A036B107D9F712E0A0E6B2E001C01D92A8
:10008000A037B107E1F70E94EB190C94361B0C94D2
:100090000000EF92FF920F931F937B018C0120E0F1
:1000A00030E040E05FE40E94F50388238CF0C80153
:1000B000B70120E030E040E05FE40E94C1010E940F
:1000C00055049B01AC01205030404040504806C0D0
:1000D000C801B7010E9455049B01AC01B901CA01D6
:1000E0001F910F91FF90EF900895A0E0B0E0EBE733
:1000F000F0E00C94FF1ADC012B01FA019C91923084
:1001000008F439C1EB018881823008F433C194309E
:1001100069F4843009F02FC111969C91119789815F
:10012000981709F428C1A0ECB0E025C1843009F487
:1001300021C18230A9F4923009F01DC19A01AD01AC
:1001400088E0EA010990AE01E90109929E0181501F
:10015000C1F7E201898111969C918923818308C1AD
:10016000923009F407C112962D903C901397EB0141
:100170008A819B811496AD90BD90CD90DC901797AD
:10018000EC80FD800E811F819101281B390BB90184
:1001900037FF04C066277727621B730B6032710537
:1001A0000CF061C0121613066CF537014801062EDB
:1001B00004C096948794779467940A94D2F721E0C8
:1001C00030E040E050E004C0220F331F441F551FB1
:1001D0006A95D2F721503040404050402E213F21B7
:1001E00040235123211531054105510521F021E01E
:1001F00030E040E050E079018A01E628F72808293C
:1002000019293CC0232BD1F1260E371E350146019A
:10021000062E04C096948794779467940A94D2F734
:1002200021E030E040E050E004C0220F331F441FC3
:10023000551F6A95D2F721503040404050402A2146
:100240003B214C215D21211531054105510521F04E
:1002500021E030E040E050E059016A01A628B728CB
:10026000C828D9280BC0821593052CF01C01AA249C
:10027000BB24650103C0EE24FF24870111969C91E5
:10028000D20111968C91981709F445C0992339F041
:10029000A80197012A193B094C095D0906C0A6016E
:1002A00095012E193F09400B510B57FD08C01182D3
:1002B0003382228224833583468357831DC081E0A5
:1002C00081833382228288279927DC01821B930B4A
:1002D000A40BB50B84839583A683B7830DC0220F2F
:1002E000331F441F551F24833583468357838281E0
:1002F000938101979383828324813581468157813D
:10030000DA01C9010197A109B1098F5F9F4FAF4F72
:10031000BF4328F30BC0918333822282EA0CFB1C7B
:100320000C1D1D1DE482F5820683178383E0808304
:10033000248135814681578157FF1AC0C901AA27F8
:1003400097FDA095BA2F81709070A070B0705695EF
:10035000479537952795822B932BA42BB52B848318
:100360009583A683B7838281938101969383828349
:10037000DF0101C0D201CD01CDB7DEB7E2E10C94BF
:100380001B1BA0E2B0E0E7ECF1E00C940B1B6983CF
:100390007A838B839C832D833E834F835887E9E048
:1003A000EE2EF12CEC0EFD1ECE010196B7010E943F
:1003B00046068E010F5E1F4FCE010596B8010E94C2
:1003C00046068A8991E089278A8BC701B801AE0168
:1003D000475E5F4F0E9475000E947105A096E6E09F
:1003E0000C94271BA0E2B0E0E8EFF1E00C940B1BAB
:1003F00069837A838B839C832D833E834F835887C5
:10040000F9E0EF2EF12CEC0EFD1ECE010196B701A6
:100410000E9446068E010F5E1F4FCE010596B80161
:100420000E944606C701B801AE01475E5F4F0E94B9
:1004300075000E947105A096E6E00C94271BA0E2CF
:10044000B0E0E5E2F2E00C94FF1A69837A838B83D3
:100450009C832D833E834F835887CE010196BE0136
:10046000675F7F4F0E944606CE010596BE016F5E14
:100470007F4F0E9446069985923088F089898230A4
:10048000C8F0943019F4823051F404C0843029F457
:10049000923081F480EC90E0C6C0923049F420E0C4
:1004A0009A858A89981321E02A87CE010996BBC0D4
:1004B000823049F420E09A858A89981321E02A8BBA
:1004C000CE014196B0C02D843E844F8458886D88FB
:1004D0007E888F88988CEE24FF248701AA24BB2471
:1004E000650140E050E060E070E0E0E0F0E0C10174
:1004F00081709070892BE9F0E60CF71C081D191D1E
:100500009A01AB012A0D3B1D4C1D5D1D80E090E062
:10051000A0E0B0E0E614F7040805190520F481E036
:1005200090E0A0E0B0E0BA01A901480F591F6A1F8E
:100530007B1FAA0CBB1CCC1CDD1C97FE08C081E0F5
:1005400090E0A0E0B0E0A82AB92ACA2ADB2A3196B6
:10055000E032F10549F0660C771C881C991C569412
:10056000479437942794C3CFFA85EA892B893C892D
:100570008B859C85280F391F2E5F3F4F17C0CA01FE
:1005800081709070892B61F016950795F794E79428
:1005900080E090E0A0E0B0E8E82AF92A0A2B1B2BC3
:1005A00076956795579547952F5F3F4F77FDE7CF36
:1005B0000CC0440F551F661F771F17FD4160EE0CDE
:1005C000FF1C001F111F21503040403090E05907A0
:1005D00090E0690790E4790760F32B8F3C8FDB0193
:1005E000CA018F779070A070B07080349105A1051A
:1005F000B10561F447FD0AC0E114F10401051105DC
:1006000029F0405C5F4F6F4F7F4F40781A8EFE1786
:1006100011F081E08A8F4D8F5E8F6F8F78A383E01A
:10062000898FCE0149960E947105A096E2E10C9453
:100630001B1BA8E1B0E0EFE1F3E00C94071B69831A
:100640007A838B839C832D833E834F835887B9E0C5
:10065000EB2EF12CEC0EFD1ECE010196B7010E948F
:1006600046068E010F5E1F4FCE010596B8010E940F
:1006700046062985223008F47EC03989323010F4CC
:10068000B8017CC08A859A8989278A87243011F02D
:10069000223031F4231709F06EC060EC70E06EC0B8
:1006A000343039F41D861E861F86188A1C861B86E8
:1006B00004C0323021F484E08987B7015FC02B8504
:1006C0003C858B899C89281B390B3C872B87ED84C3
:1006D000FE840F851889AD88BE88CF88D88CEA142F
:1006E000FB040C051D0540F4EE0CFF1C001F111F40
:1006F000215030403C872B8720E030E040E050E044
:1007000080E090E0A0E0B0E460E070E0EA14FB0478
:100710000C051D0540F0282B392B4A2B5B2BEA18C2
:10072000FB080C091D09B695A79597958795EE0CC2
:10073000FF1C001F111F6F5F7F4F6F31710531F775
:10074000DA01C9018F779070A070B0708034910584
:10075000A105B10561F427FD0AC0E114F10401050A
:10076000110529F0205C3F4F4F4F5F4F20782D87B8
:100770003E874F87588BBE01675F7F4FCB010E943A
:1007800071056896EAE00C94231BA8E1B0E0EBEC5D
:10079000F3E00C940B1B69837A838B839C832D83FA
:1007A0003E834F83588789E0E82EF12CEC0EFD1E26
:1007B000CE010196B7010E9446068E010F5E1F4FC3
:1007C000CE010596B8010E9446068985823040F028
:1007D0008989823028F0C701B8010E94BE0601C095
:1007E0008FEF6896E6E00C94271BA8E1B0E0EBEFF2
:1007F000F3E00C940B1B69837A838B839C832D839A
:100800003E834F83588789E0E82EF12CEC0EFD1EC5
:10081000CE010196B7010E9446068E010F5E1F4F62
:10082000CE010596B8010E9446068985823040F0C7
:100830008989823028F0C701B8010E94BE0601C034
:100840008FEF6896E6E00C94271BA8E1B0E0EBE29E
:10085000F4E00C940B1B69837A838B839C832D8338
:100860003E834F83588789E0E82EF12CEC0EFD1E65
:10087000CE010196B7010E9446068E010F5E1F4F02
:10088000CE010596B8010E9446068985823040F067
:100890008989823028F0C701B8010E94BE0601C0D4
:1008A00081E06896E6E00C94271BACE0B0E0EBE555
:1008B000F4E00C940F1B69837A838B839C83CE01B5
:1008C0000196BE016B5F7F4F0E9446068D8182308C
:1008D00061F1823050F1843021F48E81882351F10E
:1008E0002EC02F81388537FD20C06E812F31310514
:1008F0001CF06623F9F023C08EE190E0821B930B7D
:1009000029853A854B855C8504C056954795379572
:1009100027958A95D2F76623B1F05095409530958A
:1009200021953F4F4F4F5F4F0EC020E030E040E039
:1009300050E009C02FEF3FEF4FEF5FE704C020E02A
:1009400030E040E050E8B901CA012C96E2E00C9496
:100950002B1BA8E0B0E0EFEAF4E00C94071B7B014E
:100960008C01611571058105910519F482E0898377
:1009700060C083E089838EE1C82ED12CDC82CB82DB
:10098000ED82FE820F831887C801B7010E942205FD
:10099000FC013197F7FF3BC0222733272E1B3F0B6B
:1009A00057016801022E04C0D694C794B794A79447
:1009B0000A94D2F740E050E060E070E081E090E01F
:1009C000A0E0B0E004C0880F991FAA1FBB1F2A95A2
:1009D000D2F70197A109B1098E219F21A023B1234C
:1009E0000097A105B10521F041E050E060E070E022
:1009F0004A295B296C297D294D835E836F83788723
:100A00008EE190E08E1B9F0B9C838B8312C03097EE
:100A100081F00E2E04C0EE0CFF1C001F111F0A9463
:100A2000D2F7ED82FE820F831887CE1ADF0ADC82AE
:100A3000CB821A82CE0101960E9471052896EAE0C7
:100A40000C94231BEF92FF920F931F937B018C0159
:100A500080E0E81680E0F80681E0080780E01807EB
:100A600088F48FEFE816F1040105110531F028F044
:100A700088E090E0A0E0B0E017C080E090E0A0E067
:100A8000B0E012C080E0E81680E0F80680E00807D9
:100A900081E0180728F088E190E0A0E0B0E004C011
:100AA00080E190E0A0E0B0E020E230E040E050E003
:100AB000281B390B4A0B5B0B04C016950795F7945E
:100AC000E7948A95D2F7F701E853FF4F8081281BFE
:100AD000310941095109C9011F910F91FF90EF9010
:100AE0000895DF92EF92FF920F931F93FC01E48031
:100AF000F58006811781D1808081823048F480E0C2
:100B000090E0A0E1B0E0E82AF92A0A2B1B2BA5C04F
:100B1000843009F49FC0823021F4EE24FF24870141
:100B200005C0E114F1040105110519F4E0E0F0E05D
:100B300096C0628173819FEF623879070CF05BC0C9
:100B400022E83FEF261B370B2A3131052CF020E03D
:100B500030E040E050E02AC0B801A701022E04C0F6
:100B600076956795579547950A94D2F781E090E07E
:100B7000A0E0B0E004C0880F991FAA1FBB1F2A95F0
:100B8000D2F70197A109B1098E219F21A023B1239A
:100B90000097A105B10521F081E090E0A0E0B0E070
:100BA0009A01AB01282B392B4A2B5B2BDA01C901A7
:100BB0008F779070A070B07080349105A105B10559
:100BC00039F427FF09C0205C3F4F4F4F5F4F04C0EF
:100BD000215C3F4F4F4F5F4FE0E0F0E02030A0E05E
:100BE0003A07A0E04A07A0E45A0710F0E1E0F0E07D
:100BF00079018A0127C06038710564F5FB01E1586D
:100C0000FF4FD801C7018F779070A070B07080340B
:100C10009105A105B10539F4E7FE0DC080E490E02F
:100C2000A0E0B0E004C08FE390E0A0E0B0E0E80E08
:100C3000F91E0A1F1B1F17FF05C016950795F7948D
:100C4000E794319687E016950795F794E7948A958F
:100C5000D1F705C0EE24FF248701EFEFF0E06E2FFF
:100C6000679566276795902F9F77D794DD24D79453
:100C70008E2F8695492F462B582F5D29B701CA0123
:100C80001F910F91FF90EF90DF900895FC01DB0121
:100C9000408151812281622F6F7770E0221F2227CD
:100CA000221F9381892F880F822B282F30E0991FD4
:100CB0009927991F11969C93119721153105A9F534
:100CC000411551056105710511F482E037C082E8D4
:100CD0009FEF13969C938E9312979A01AB0167E056
:100CE000220F331F441F551F6A95D1F783E08C9361
:100CF0000DC0220F331F441F551F12968D919C91DA
:100D00001397019713969C938E931297203080E04F
:100D1000380780E0480780E4580758F314962D936D
:100D20003D934D935C93179708952F3F310579F4C8
:100D3000411551056105710519F484E08C930895FE
:100D400064FF03C081E08C9312C01C9210C02F5727
:100D5000304013963C932E93129783E08C9387E058
:100D6000440F551F661F771F8A95D1F7706414963C
:100D70004D935D936D937C93179708951F93DC01BA
:100D8000FB019C91923008F447C08081823008F4C6
:100D900043C0943051F411961C91843099F58181AF
:100DA000682F70E0611B71093FC0843021F09230E0
:100DB00031F48230B9F18181882389F12DC01196F7
:100DC0001C9111978230F1F081811817D9F4129695
:100DD0002D913C911397828193818217930794F010
:100DE00028173907BCF014968D919D910D90BC91F8
:100DF000A02D2481358146815781281739074A075C
:100E00005B0718F4112341F00AC082179307A40767
:100E1000B50740F4112319F061E070E005C06FEFF1
:100E20007FEF02C060E070E0CB011F910895DF9377
:100E3000CF93CDB7DEB7A3E5B0E0E3E5F0E0808186
:100E4000877B8C93A3E5B0E0E3E5F0E080818064EC
:100E50008C93A3E5B0E0E3E5F0E080818F7C8C9398
:100E6000A3E5B0E0E3E5F0E0808180628C93CF9170
:100E7000DF910895DF93CF93CDB7DEB7A3E5B0E060
:100E8000E3E5F0E08081887F8C93A3E5B0E0E3E5C3
:100E9000F0E0808181608C93CF91DF910895DF93A2
:100EA000CF93CDB7DEB7A3E5B0E0E3E5F0E0808116
:100EB000887F8C93E2E5F0E01082CF91DF91089576
:100EC000DF93CF93CDB7DEB769970FB6F894DEBF47
:100ED0000FBECDBF9C8B8B8BCE0109969E8B8D8BCD
:100EE000EAECF1E0F88FEF8BFAE0F98FEF89F88DFB
:100EF00000808F89988D0196988F8F8BED89FE8960
:100F000000828D899E8901969E8B8D8B998D915043
:100F1000998FE98DEE2351F780915C02882F90E044
:100F200001979C01220F331FCE010196820F931F60
:100F3000FC01389680819181CC01A0E0B0E0BC0139
:100F4000CD010E94A904DC01CB01BC01CD0120E050
:100F500034E244E75BE40E941903DC01CB018D839A
:100F60009E83AF83B8878B899C8928EE33E0B901D3
:100F70000E949B1ACB01CC01A0E0B0E0BC01CD01E6
:100F80000E94A904DC01CB01BC01CD012D813E8171
:100F90004F8158850E941903DC01CB01BC01CD01B2
:100FA0000E944900DC01CB0189839A83AB83BC8317
:100FB00080915D02882301F589819A81AB81BC8192
:100FC000892F9A2FAB2FBB278093680290936902D9
:100FD000A0936A02B0936B0289819A81AB81BC8134
:100FE0009070A070B07080936C0290936D02A0938B
:100FF0006E02B0936F0234C080915D02883081F53B
:1010000080915F02282F30E040E050E089819A8192
:10101000AB81BC81BC01CD010E94C21ADA01C901B9
:101020008093680290936902A0936A02B0936B0266
:1010300080915F02282F30E040E050E089819A8162
:10104000AB81BC81BC01CD010E94C21ADC01CB0185
:1010500080936C0290936D02A0936E02B0936F0226
:1010600069960FB6F894DEBF0FBECDBFCF91DF916A
:101070000895DF93CF93CDB7DEB7A9E5B0E0E9E5FA
:10108000F0E080818C7F8C9380915D02882341F415
:10109000A9E5B0E0E9E5F0E0808181608C930BC0C8
:1010A00080915D02883039F4A9E5B0E0E9E5F0E02F
:1010B000808182608C93CF91DF910895DF93CF93ED
:1010C000CDB7DEB7A9E5B0E0E9E5F0E080818E7F3D
:1010D0008C93CF91DF910895DF93CF9300D0CDB75C
:1010E000DEB79A83898389819A81009731F089815B
:1010F0009A8190936302809362020F900F90CF9138
:10110000DF910895DF93CF9300D0CDB7DEB79A83F8
:10111000898389819A81009731F089819A8190939E
:101120006102809360020F900F90CF91DF9108953C
:10113000DF93CF9300D000D00F92CDB7DEB7698395
:101140007A838B839C834D83ECE5F0E084E6808397
:10115000A3E5B0E0E3E5F0E08081887F8C93A3E530
:10116000B0E0E3E5F0E0808182608C930F900F9017
:101170000F900F900F90CF91DF910895DF93CF9351
:1011800000D000D00F92CDB7DEB769837A838B830E
:101190009C834D83ECE5F0E08D81482F50E0CA013F
:1011A0009C01220F331FC9019695982F8827979588
:1011B0008795821B930B840F951F24E630E0B901BD
:1011C0000E94AF1ACB018083A3E5B0E0E3E5F0E035
:1011D0008081887F8C93A3E5B0E0E3E5F0E0908127
:1011E0008981892B8C930F900F900F900F900F9007
:1011F000CF91DF9108951F920F920FB60F92112495
:101200002F933F934F935F936F937F938F939F930E
:10121000AF93BF93EF93FF93DF93CF93CDB7DEB739
:101220008091640290916502A0916602B09167027C
:101230000196A11DB11D8093640290936502A09355
:101240006602B09367028091680290916902A09152
:101250006A02B0916B029C01AD012F5F3F4F4F4F6F
:101260005F4F8091640290916502A0916602B091F7
:101270006702281739074A075B0769F4E0916202A1
:10128000F091630209951092640210926502109227
:10129000660210926702CF91DF91FF91EF91BF91AB
:1012A000AF919F918F917F916F915F914F913F91FE
:1012B0002F910F900FBE0F901F9018951F920F92B5
:1012C0000FB60F9211242F933F934F935F936F9319
:1012D0007F938F939F93AF93BF93EF93FF93DF938E
:1012E000CF93CDB7DEB78091640290916502A09153
:1012F0006602B09167020196A11DB11D8093640240
:1013000090936502A0936602B09367028091680291
:1013100090916902A0916A02B0916B029C01AD01AB
:101320002F5F3F4F4F4F5F4F809164029091650256
:10133000A0916602B0916702281739074A075B0738
:1013400069F4E0916002F0916102099510926402E3
:10135000109265021092660210926702CF91DF919F
:10136000FF91EF91BF91AF919F918F917F916F917D
:101370005F914F913F912F910F900FBE0F901F9053
:101380001895DF93CF93CDB7DEB72B970FB6F894B0
:10139000DEBF0FBECDBF9D838C838C819D81009766
:1013A00009F440C21B823AC28B81882F90E09C01D5
:1013B000220F331F220F331F8C819D81FC01E20F0E
:1013C000F31F80819AE0692F0E948F1A892F8A83E8
:1013D0008B81882F90E09C01220F331F220F331F37
:1013E0008C819D81FC01E20FF31F80819AE0692FBF
:1013F0000E948F1A89838B81882F90E09C01220F95
:10140000331F220F331F8C819D81FC01E20FF31FDC
:101410008281882389F08B81882F90E09C01220FA4
:10142000331F220F331F8C819D81FC01E20FF31FBC
:101430008281813009F0EFC18981282F30E03B871C
:101440002A876A857B8562307105D1F18A859B8503
:101450008330910534F42A853B852130310571F0C4
:1014600094C06A857B856330710509F44BC08A8519
:101470009B858430910509F467C087C0AAE3B0E07A
:10148000EAE3F0E040818B81882F90E09C01220FFD
:10149000331F220F331F8C819D81FC01E20FF31F4C
:1014A0008281282F30E08A81882F90E0B90102C024
:1014B000660F771F8A95E2F7CB01842B8C9365C06A
:1014C000A7E3B0E0E7E3F0E040818B81882F90E074
:1014D0009C01220F331F220F331F8C819D81FC0141
:1014E000E20FF31F8281282F30E08A81882F90E05D
:1014F000B90102C0660F771F8A95E2F7CB01842BF2
:101500008C9343C0A4E3B0E0E4E3F0E040818B813E
:10151000882F90E09C01220F331F220F331F8C81F4
:101520009D81FC01E20FF31F8281282F30E08A8128
:10153000882F90E0B90102C0660F771F8A95E2F705
:10154000CB01842B8C9321C0A1E3B0E0E1E3F0E078
:1015500040818B81882F90E09C01220F331F220F46
:10156000331F8C819D81FC01E20FF31F8281282FA4
:1015700030E08A81882F90E0B90102C0660F771FA2
:101580008A95E2F7CB01842B8C938B81882F90E096
:101590009C01220F331F220F331F8C819D81FC0180
:1015A000E20FF31F8181882389F08B81882F90E0DF
:1015B0009C01220F331F220F331F8C819D81FC0160
:1015C000E20FF31F8181813009F025C18981282F25
:1015D00030E0398728876885798562307105D1F1D7
:1015E000888599858330910534F4288539852130A3
:1015F000310571F094C0688579856330710509F40F
:101600004BC0888599858430910509F467C087C0EF
:10161000ABE3B0E0EBE3F0E040818B81882F90E01A
:101620009C01220F331F220F331F8C819D81FC01EF
:10163000E20FF31F8181282F30E08A81882F90E00C
:10164000B90102C0660F771F8A95E2F7CB01842BA0
:101650008C9365C0A8E3B0E0E8E3F0E040818B81C3
:10166000882F90E09C01220F331F220F331F8C81A3
:101670009D81FC01E20FF31F8181282F30E08A81D8
:10168000882F90E0B90102C0660F771F8A95E2F7B4
:10169000CB01842B8C9343C0A5E3B0E0E5E3F0E0FD
:1016A00040818B81882F90E09C01220F331F220FF5
:1016B000331F8C819D81FC01E20FF31F8181282F54
:1016C00030E08A81882F90E0B90102C0660F771F51
:1016D0008A95E2F7CB01842B8C9321C0A2E3B0E082
:1016E000E2E3F0E040818B81882F90E09C01220FA3
:1016F000331F220F331F8C819D81FC01E20FF31FEA
:101700008181282F30E08A81882F90E0B90102C0C2
:10171000660F771F8A95E2F7CB01842B8C938B8120
:10172000882F90E09C01220F331F220F331F8C81E2
:101730009D81FC01E20FF31F8381882309F06BC0B8
:101740008981282F30E03F832E836E817F81623034
:10175000710549F18E819F818330910534F42E818A
:101760003F812130310561F056C06E817F81633049
:10177000710561F18E819F8184309105D1F14BC05B
:10178000ABE3B0E0EBE3F0E040818A81282F30E06A
:1017900081E090E0022E02C0880F991F0A94E2F7C0
:1017A000842B8C9338C0A8E3B0E0E8E3F0E04081FC
:1017B0008A81282F30E081E090E0022E02C0880F5D
:1017C000991F0A94E2F7842B8C9325C0A5E3B0E01F
:1017D000E5E3F0E040818A81282F30E081E090E06D
:1017E000022E02C0880F991F0A94E2F7842B8C9373
:1017F00012C0A2E3B0E0E2E3F0E040818A81282F4A
:1018000030E081E090E0022E02C0880F991F0A9418
:10181000E2F7842B8C938B818F5F8B838B818C3150
:1018200008F4C2CD2B960FB6F894DEBF0FBECDBF25
:10183000CF91DF910895DF93CF93CDB7DEB7AFE5BA
:10184000B0E0EFE5F0E0808180688C93CF91DF918C
:101850000895DF93CF93CDB7DEB7AFE5B0E0EFE506
:10186000F0E080818F778C93CF91DF910895DF93A3
:10187000CF9300D000D000D0CDB7DEB78C838C8161
:101880009AE0692F0E948F1A892F8B838C819AE0AE
:10189000692F0E948F1A8A838A81282F30E03E8325
:1018A0002D834D815E814230510541F18D819E81B4
:1018B0008330910534F42D813E812130310561F072
:1018C00052C04D815E814330510551F18D819E8121
:1018D00084309105B9F147C0E9E3F0E08081282F19
:1018E00030E08B81882F90E0A90102C05595479583
:1018F0008A95E2F7CA018170898335C0E6E3F0E09A
:101900008081282F30E08B81882F90E0A90102C0D0
:10191000559547958A95E2F7CA018170898323C05E
:10192000E3E3F0E08081282F30E08B81882F90E086
:10193000A90102C0559547958A95E2F7CA018170C1
:10194000898311C0E0E3F0E08081282F30E08B81B3
:10195000882F90E0A90102C0559547958A95E2F736
:10196000CA0181708983898126960FB6F894DEBFFB
:101970000FBECDBFCF91DF910895DF93CF93CDB749
:10198000DEB728970FB6F894DEBF0FBECDBF8B83AE
:101990006C838B819AE0692F0E948F1A892F8A832A
:1019A0008B819AE0692F0E948F1A89838C81813004
:1019B00009F070C08981282F30E038872F838F810C
:1019C00098858230910551F12F813885233031057A
:1019D00034F48F8198858130910561F0D3C02F81D7
:1019E00038852330310571F18F81988584309105D8
:1019F000E9F1C8C0ABE3B0E0EBE3F0E08081482F51
:101A00008A81282F30E081E090E0022E02C0880F0A
:101A1000991F0A94E2F7842B8C93B4C0A8E3B0E03A
:101A2000E8E3F0E08081482F8A81282F30E081E0D0
:101A300090E0022E02C0880F991F0A94E2F7842BCF
:101A40008C93A0C0A5E3B0E0E5E3F0E08081482FEF
:101A50008A81282F30E081E090E0022E02C0880FBA
:101A6000991F0A94E2F7842B8C938CC0A2E3B0E018
:101A7000E2E3F0E08081482F8A81282F30E081E086
:101A800090E0022E02C0880F991F0A94E2F7842B7F
:101A90008C9378C08C81882309F074C08981282FA9
:101AA00030E03E832D838D819E818230910561F1EE
:101AB0002D813E812330310534F48D819E8181302A
:101AC000910569F05FC02D813E812330310589F198
:101AD0008D819E818430910509F440C053C0ABE3F1
:101AE000B0E0EBE3F0E08081482F8A81282F30E0DE
:101AF00081E090E0022E02C0880F991F0A94E2F75D
:101B0000809584238C933EC0A8E3B0E0E8E3F0E046
:101B10008081482F8A81282F30E081E090E0022EDA
:101B200002C0880F991F0A94E2F7809584238C9352
:101B300029C0A5E3B0E0E5E3F0E08081482F8A8189
:101B4000282F30E081E090E0022E02C0880F991F1C
:101B50000A94E2F7809584238C9314C0A2E3B0E04A
:101B6000E2E3F0E08081482F8A81282F30E081E095
:101B700090E0022E02C0880F991F0A94E2F7809528
:101B800084238C9328960FB6F894DEBF0FBECDBF8A
:101B9000CF91DF910895DF93CF9300D000D0CDB7E0
:101BA000DEB78A838A81282F30E03C832B838B81A8
:101BB0009C8182309105D9F02B813C812330310505
:101BC00034F48B819C818130910561F01EC02B81A2
:101BD0003C812330310581F08B819C8184309105DB
:101BE00081F013C0EBE3F0E0808189830EC0E8E36D
:101BF000F0E08081898309C0E5E3F0E0808189839A
:101C000004C0E2E3F0E08081898389810F900F9026
:101C10000F900F90CF91DF910895DF93CF9300D075
:101C200000D0CDB7DEB789836A838981282F30E061
:101C30003C832B838B819C8182309105D9F02B8151
:101C40003C812330310534F48B819C8181309105B6
:101C500061F01EC02B813C812330310581F08B81E6
:101C60009C818430910581F013C0EBE3F0E08A8120
:101C700080830EC0E8E3F0E08A81808309C0E5E359
:101C8000F0E08A81808304C0E2E3F0E08A8180830F
:101C90000F900F900F900F90CF91DF910895DF93E9
:101CA000CF9300D000D00F92CDB7DEB78B838B815E
:101CB0009AE0692F0E948F1A892F8A838B819AE07C
:101CC000692F0E948F1A89838981282F30E03D83F4
:101CD0002C838C819D818230910551F12C813D8135
:101CE0002330310534F48C819D818130910561F080
:101CF0005AC02C813D812330310571F18C819D8149
:101D000084309105E9F14FC0ABE3B0E0EBE3F0E0E4
:101D10008081482F8A81282F30E081E090E0022ED8
:101D200002C0880F991F0A94E2F784278C933BC066
:101D3000A8E3B0E0E8E3F0E08081482F8A81282F13
:101D400030E081E090E0022E02C0880F991F0A94D3
:101D5000E2F784278C9327C0A5E3B0E0E5E3F0E049
:101D60008081482F8A81282F30E081E090E0022E88
:101D700002C0880F991F0A94E2F784278C9313C03E
:101D8000A2E3B0E0E2E3F0E08081482F8A81282FCF
:101D900030E081E090E0022E02C0880F991F0A9483
:101DA000E2F784278C930F900F900F900F900F9075
:101DB000CF91DF9108950F931F93DF93CF93CDB70A
:101DC000DEB7C156D0400FB6F894DEBF0FBECDBF10
:101DD000FE01EF59FF4F80838CE060E00E94BD0C54
:101DE000FE01EF59FF4F808182958F70982F91707F
:101DF00084E1692F0E94BD0CFE01EF59FF4F8081E5
:101E0000829586958770982F917085E1692F0E9441
:101E1000BD0CFE01EF59FF4F808182958695869516
:101E20008370982F917086E1692F0E94BD0CFE018E
:101E3000EF59FF4F8081982F991F9927991F88E1AB
:101E4000692F0E94BD0C8CE061E00E94BD0CFE0178
:101E5000E35AFF4F80E090E0A0E8BFE380839183E6
:101E6000A283B3838E01075A1F4FFE01E35AFF4F2F
:101E700060817181828193812BEA3AEA4AEA50E4D7
:101E80000E941F02DC01CB01F80180839183A283B1
:101E9000B383FE01E75AFF4F608171818281938194
:101EA00020E030E040E85FE30E942504882334F41A
:101EB000FE01E85AFF4F81E08083E0C0FE01E75A4F
:101EC000FF4F608171818281938120E030E04FE794
:101ED00053E40E94C50318160CF0C0C0FE01E35A7B
:101EE000FF4F608171818281938120E030E04AE779
:101EF00054E40E941903DC01CB01FE01EC5AFF4FB0
:101F000080839183A283B3838E01005B1F4FFE0108
:101F1000EC5AFF4F608171818281938120E030E033
:101F20004AE755E40E941F02DC01CB01F8018083DF
:101F30009183A283B383FE01E05BFF4F60817181D7
:101F40008281938120E030E040E85FE30E94250435
:101F5000882344F4FE01E25BFF4F81E090E091832F
:101F6000808364C0FE01E05BFF4F608171818281EC
:101F7000938120E03FEF4FE757E40E94C503181616
:101F80000CF043C0FE01EC5AFF4F608171818281E9
:101F9000938120E030E040E251E40E941F02DC0126
:101FA000CB018E01025B1F4FBC01CD010E94490095
:101FB000DC01CB01F801918380831FC0FE01E45B4B
:101FC000FF4F80E991E091838083FE01E45BFF4F46
:101FD000808191810197F1F7FE01E45BFF4F9183CE
:101FE0008083DE01A25BBF4FFE01E25BFF4F808179
:101FF0009181019711969C938E93FE01E25BFF4FB6
:10200000808191810097D1F64BC08E01025B1F4FFA
:10201000FE01E05BFF4F60817181828193810E94AC
:102020004900DC01CB01F80191838083DE01A65BCE
:10203000BF4FFE01E25BFF4F8081918111969C931F
:102040008E93FE01E65BFF4F808191810197F1F74E
:10205000FE01E65BFF4F9183808322C08E01085A08
:102060001F4FFE01E75AFF4F60817181828193818A
:102070000E944900DC01CB01F8018083DE01A75BEF
:10208000BF4FFE01E85AFF4F80818C93FE01E75B52
:10209000FF4F80818A95F1F7FE01E75BFF4F808358
:1020A0008CE060E00E94BD0CFE01EB5BFF4F80E026
:1020B00090E0A8ECB2E480839183A283B3838E0185
:1020C0000F5B1F4FFE01EB5BFF4F608171818281CF
:1020D00093812BEA3AEA4AEA50E40E941F02DC01AB
:1020E000CB01F80180839183A283B383FE01EF5B70
:1020F000FF4F608171818281938120E030E040E870
:102100005FE30E942504882334F481E0FE01E05C53
:10211000FF4F80839DC0FE01EF5BFF4F60817181A7
:102120008281938120E030E04FE753E40E94C503B1
:1021300018160CF07EC0FE01EB5BFF4F60817181D1
:102140008281938120E030E04AE754E40E94190341
:10215000DC01CB018CAF9DAFAEAFBFAF6CAD7DAD41
:102160008EAD9FAD20E030E04AE755E40E941F02AB
:10217000DC01CB0188AF99AFAAAFBBAF68AD79AD39
:102180008AAD9BAD20E030E040E85FE30E9425048B
:1021900088232CF481E090E09FAB8EAB3FC068AD0C
:1021A00079AD8AAD9BAD20E03FEF4FE757E40E9449
:1021B000C50318164CF56CAD7DAD8EAD9FAD20E01E
:1021C00030E040E251E40E941F02DC01CB01BC017F
:1021D000CD010E944900DC01CB019FAB8EAB0FC04B
:1021E00080E991E09DAB8CAB8CA99DA90197F1F79B
:1021F0009DAB8CAB8EA99FA901979FAB8EAB8EA98F
:102200009FA9009769F72DC068AD79AD8AAD9BADE8
:102210000E944900DC01CB019FAB8EAB8EA99FA928
:102220009BAB8AAB8AA99BA90197F1F79BAB8AABC1
:1022300018C0FE01EF5BFF4F608171818281938145
:102240000E944900DC01CB01FE01E05CFF4F80836E
:10225000FE01E05CFF4F808189AB89A98A95F1F787
:1022600089AB8CE060E00E94BD0CFE01EF59FF4F8E
:102270008081982F917084E1692F0E94BD0CFE012E
:10228000EF59FF4F80818695982F917085E1692FD6
:102290000E94BD0CFE01EF59FF4F80818695869507
:1022A000982F917086E1692F0E94BD0CFE01EF59B5
:1022B000FF4F8081869586958695982F917088E14D
:1022C000692F0E94BD0C8CE061E00E94BD0C80E093
:1022D00090E0A0E8BFE38DA79EA7AFA7B8AB6DA520
:1022E0007EA58FA598A92BEA3AEA4AEA50E40E9413
:1022F0001F02DC01CB0189A79AA7ABA7BCA769A5E0
:102300007AA58BA59CA520E030E040E85FE30E9421
:10231000250488231CF481E088A791C069A57AA5CB
:102320008BA59CA520E030E04FE753E40E94C50355
:1023300018160CF07BC06DA57EA58FA598A920E08E
:1023400030E04AE754E40E941903DC01CB018CA37E
:102350009DA3AEA3BFA36CA17DA18EA19FA120E0F0
:1023600030E04AE755E40E941F02DC01CB0188A35C
:1023700099A3AAA3BBA368A179A18AA19BA120E0EC
:1023800030E040E85FE30E94250488232CF481E0DC
:1023900090E09F8F8E8F3FC068A179A18AA19BA1F9
:1023A00020E03FEF4FE757E40E94C50318164CF5B5
:1023B0006CA17DA18EA19FA120E030E040E251E41C
:1023C0000E941F02DC01CB01BC01CD010E9449002B
:1023D000DC01CB019F8F8E8F0FC080E991E09D8F34
:1023E0008C8F8C8D9D8D0197F1F79D8F8C8F8E8DAD
:1023F0009F8D01979F8F8E8F8E8D9F8D009769F790
:1024000024C068A179A18AA19BA10E944900DC0196
:10241000CB019F8F8E8F8E8D9F8D9B8F8A8F8A8D04
:102420009B8D0197F1F79B8F8A8F0FC069A57AA5C5
:102430008BA59CA50E944900DC01CB0188A788A53B
:10244000898F898D8A95F1F7898F8CE060E00E94F1
:10245000BD0C80E090E0A8ECB2E48D8B9E8BAF8B3E
:10246000B88F6D897E898F89988D2BEA3AEA4AEA7E
:1024700050E40E941F02DC01CB01898B9A8BAB8B4D
:10248000BC8B69897A898B899C8920E030E040E89F
:102490005FE30E94250488231CF481E0888B91C0AF
:1024A00069897A898B899C8920E030E04FE753E481
:1024B0000E94C50318160CF07BC06D897E898F8938
:1024C000988D20E030E04AE754E40E941903DC01D3
:1024D000CB018C879D87AE87BF876C857D858E8578
:1024E0009F8520E030E04AE755E40E941F02DC01AE
:1024F000CB0188879987AA87BB87688579858A8574
:102500009B8520E030E040E85FE30E9425048823BB
:102510002CF481E090E09F838E833FC068857985AD
:102520008A859B8520E03FEF4FE757E40E94C50373
:1025300018164CF56C857D858E859F8520E030E0F2
:1025400040E251E40E941F02DC01CB01BC01CD013D
:102550000E944900DC01CB019F838E830FC080E97C
:1025600091E09D838C838C819D810197F1F79D8300
:102570008C838E819F8101979F838E838E819F8123
:10258000009769F724C0688579858A859B850E94B4
:102590004900DC01CB019F838E838E819F819B83C9
:1025A0008A838A819B810197F1F79B838A830FC07D
:1025B00069897A898B899C890E944900DC01CB0159
:1025C000888B8889898389818A95F1F78983CF5996
:1025D000DF4F0FB6F894DEBF0FBECDBFCF91DF91B6
:1025E0001F910F910895DF93CF93CDB7DEB7E0979A
:1025F0000FB6F894DEBF0FBECDBF8CE060E00E9446
:10260000BD0C80E090E0AAEFB4E48DA79EA7AFA731
:10261000B8AB6DA57EA58FA598A92BEA3AEA4AEA40
:1026200050E40E941F02DC01CB0189A79AA7ABA747
:10263000BCA769A57AA58BA59CA520E030E040E861
:102640005FE30E94250488231CF481E088A791C0E1
:1026500069A57AA58BA59CA520E030E04FE753E45F
:102660000E94C50318160CF07BC06DA57EA58FA532
:1026700098A920E030E04AE754E40E941903DC0105
:10268000CB018CA39DA3AEA3BFA36CA17DA18EA102
:102690009FA120E030E04AE755E40E941F02DC01E0
:1026A000CB0188A399A3AAA3BBA368A179A18AA1FE
:1026B0009BA120E030E040E85FE30E9425048823EE
:1026C0002CF481E090E09F8F8E8F3FC068A179A1AC
:1026D0008AA19BA120E03FEF4FE757E40E94C5038A
:1026E00018164CF56CA17DA18EA19FA120E030E0D1
:1026F00040E251E40E941F02DC01CB01BC01CD018C
:102700000E944900DC01CB019F8F8E8F0FC080E9B2
:1027100091E09D8F8C8F8C8D9D8D0197F1F79D8F12
:102720008C8F8E8D9F8D01979F8F8E8F8E8D9F8D1D
:10273000009769F724C068A179A18AA19BA10E9492
:102740004900DC01CB019F8F8E8F8E8D9F8D9B8FDB
:102750008A8F8A8D9B8D0197F1F79B8F8A8F0FC08F
:1027600069A57AA58BA59CA50E944900DC01CB0137
:1027700088A788A5898F898D8A95F1F7898F83E34A
:102780000E94A91482E30E94A91488E20E94A9145D
:102790008EE00E94A91481E00E94A91480E090E0DC
:1027A000AAEFB4E48D8B9E8BAF8BB88F6D897E8939
:1027B0008F89988D2BEA3AEA4AEA50E40E941F0278
:1027C000DC01CB01898B9A8BAB8BBC8B69897A89B5
:1027D0008B899C8920E030E040E85FE30E9425047B
:1027E00088231CF481E0888B91C069897A898B8960
:1027F0009C8920E030E04FE753E40E94C50318169F
:102800000CF07BC06D897E898F89988D20E030E047
:102810004AE754E40E941903DC01CB018C879D87B1
:10282000AE87BF876C857D858E859F8520E030E0F3
:102830004AE755E40E941F02DC01CB018887998793
:10284000AA87BB87688579858A859B8520E030E0EB
:1028500040E85FE30E94250488232CF481E090E0A7
:102860009F838E833FC0688579858A859B8520E01C
:102870003FEF4FE757E40E94C50318164CF56C85EF
:102880007D858E859F8520E030E040E251E40E9406
:102890001F02DC01CB01BC01CD010E944900DC011B
:1028A000CB019F838E830FC080E991E09D838C8351
:1028B0008C819D810197F1F79D838C838E819F810F
:1028C00001979F838E838E819F81009769F724C033
:1028D000688579858A859B850E944900DC01CB014A
:1028E0009F838E838E819F819B838A838A819B8134
:1028F0000197F1F79B838A830FC069897A898B8955
:102900009C890E944900DC01CB01888B88898983DE
:1029100089818A95F1F7898386E00E94A914E0965F
:102920000FB6F894DEBF0FBECDBFCF91DF910895F3
:10293000DF93CF930F92CDB7DEB789838DE061E04F
:102940000E94BD0C89810E94DB0E0F90CF91DF9118
:102950000895DF93CF930F92CDB7DEB789838DE0D3
:1029600060E00E94BD0C89810E94DB0E0F90CF9128
:10297000DF910895DF93CF9300D0CDB7DEB79A8370
:1029800089830AC0E981FA8180810E949814898133
:102990009A8101969A838983E981FA8180818823CB
:1029A00089F70F900F90CF91DF910895EF92FF92EA
:1029B0000F931F93DF93CF93CDB7DEB728970FB652
:1029C000F894DEBF0FBECDBF6D837E838F83988763
:1029D00081E090E0A0E0B0E089839A83AB83BC8380
:1029E0008D819E81AF81B8850097A105B105D1F594
:1029F00080E30E9498146BC089819A81AB81BC816D
:102A00002AE030E040E050E0BC01CD010E94701AA5
:102A10007B018C018D819E81AF81B8852AE030E0F9
:102A200040E050E0BC01CD010E94E41ADC01CB0182
:102A30008E0D9F1DA01FB11F89839A83AB83BC831A
:102A40008D819E81AF81B8852AE030E040E050E082
:102A5000BC01CD010E94E41ADA01C9018D839E8375
:102A6000AF83B8878D819E81AF81B8850097A1051E
:102A7000B10511F623C089819A81AB81BC812AE01E
:102A800030E040E050E0BC01CD010E94C21ADC0100
:102A9000CB01805D0E94981489819A81AB81BC81B1
:102AA0002AE030E040E050E0BC01CD010E94C21AB3
:102AB000DA01C90189839A83AB83BC8389819A81B6
:102AC000AB81BC8181309105A105B105A1F62896A5
:102AD0000FB6F894DEBF0FBECDBFCF91DF911F912F
:102AE0000F91FF90EF900895DF93CF93CDB7DEB7AE
:102AF0006E970FB6F894DEBF0FBECDBF8D8F6E8F71
:102B000080E8898F80EC8A8F84E98B8F84ED8C8FAD
:102B10008E8D882F90E09C0121503040CE01499647
:102B2000FC01E20FF31F90818D8D890F81500E946F
:102B3000A91480E090E0A8ECB2E48D8B9E8BAF8B63
:102B4000B88F6D897E898F89988D2BEA3AEA4AEA97
:102B500050E40E941F02DC01CB01898B9A8BAB8B66
:102B6000BC8B69897A898B899C8920E030E040E8B8
:102B70005FE30E94250488231CF481E0888B91C0C8
:102B800069897A898B899C8920E030E04FE753E49A
:102B90000E94C50318160CF07BC06D897E898F8951
:102BA000988D20E030E04AE754E40E941903DC01EC
:102BB000CB018C879D87AE87BF876C857D858E8591
:102BC0009F8520E030E04AE755E40E941F02DC01C7
:102BD000CB0188879987AA87BB87688579858A858D
:102BE0009B8520E030E040E85FE30E9425048823D5
:102BF0002CF481E090E09F838E833FC068857985C7
:102C00008A859B8520E03FEF4FE757E40E94C5038C
:102C100018164CF56C857D858E859F8520E030E00B
:102C200040E251E40E941F02DC01CB01BC01CD0156
:102C30000E944900DC01CB019F838E830FC080E995
:102C400091E09D838C838C819D810197F1F79D8319
:102C50008C838E819F8101979F838E838E819F813C
:102C6000009769F724C0688579858A859B850E94CD
:102C70004900DC01CB019F838E838E819F819B83E2
:102C80008A838A819B810197F1F79B838A830FC096
:102C900069897A898B899C890E944900DC01CB0172
:102CA000888B8889898389818A95F1F789836E96D3
:102CB0000FB6F894DEBF0FBECDBFCF91DF91089560
:102CC000DF93CF9300D000D000D0CDB7DEB789839B
:102CD0006A838981282F30E03E832D838D819E81F8
:102CE000009731F02D813E812130310531F009C04E
:102CF00089E160E00E94BD0C04C089E161E00E94AE
:102D0000BD0C8A81282F30E03C832B838B819C81F2
:102D1000009731F02B813C812130310531F009C021
:102D20008AE161E00E94BD0C04C08AE160E00E947B
:102D3000BD0C26960FB6F894DEBF0FBECDBFCF9167
:102D4000DF910895DF93CF9300D0CDB7DEB78983AD
:102D50006A838981882F90E0A0E0B0E0BC01CD01BA
:102D60004A810E94BE080F900F90CF91DF91089585
:102D7000DF93CF93CDB7DEB7AE970FB6F894DEBF33
:102D80000FBECDBFA5E3B0E0E5E3F0E08081837C3A
:102D90008C93E0E3F0E08081887E8BA78BA5883E52
:102DA00089F780E090E0A0EAB1E48FA398A7A9A7F3
:102DB000BAA76FA178A589A59AA520E030E04AE7D7
:102DC00055E40E941F02DC01CB018BA39CA3ADA3A1
:102DD000BEA36BA17CA18DA19EA120E030E040E8C4
:102DE0005FE30E94250488232CF481E090E09AA3FD
:102DF00089A33FC06BA17CA18DA19EA120E03FEFE4
:102E00004FE757E40E94C50318164CF56FA178A54B
:102E100089A59AA520E030E040E251E40E941F021B
:102E2000DC01CB01BC01CD010E944900DC01CB01DA
:102E30009AA389A30FC080E991E098A38F8F8F8D0B
:102E400098A10197F1F798A38F8F89A19AA1019773
:102E50009AA389A389A19AA1009769F714C06BA1CD
:102E60007CA18DA19EA10E944900DC01CB019AA307
:102E700089A389A19AA19E8F8D8F8D8D9E8D01979B
:102E8000F1F79E8F8D8FE0E3F0E08081887E8BA745
:102E90008BA5883E09F485CF80E090E0A0EAB1E4FC
:102EA000898F9A8FAB8FBC8F698D7A8D8B8D9C8D1E
:102EB00020E030E04AE755E40E941F02DC01CB012C
:102EC0008D8B9E8BAF8BB88F6D897E898F89988D06
:102ED00020E030E040E85FE30E94250488232CF4E2
:102EE00081E090E09C8B8B8B3FC06D897E898F89C0
:102EF000988D20E03FEF4FE757E40E94C503181676
:102F00004CF5698D7A8D8B8D9C8D20E030E040E210
:102F100051E40E941F02DC01CB01BC01CD010E94E3
:102F20004900DC01CB019C8B8B8B0FC080E991E0C9
:102F30009A8B898B89899A890197F1F79A8B898B6A
:102F40008B899C8901979C8B8B8B8B899C890097A3
:102F500069F714C06D897E898F89988D0E94490018
:102F6000DC01CB019C8B8B8B8B899C89988B8F8709
:102F70008F8598890197F1F7988B8F87E0E3F0E0D0
:102F80008081887E8BA78BA5883E09F40ACF1EA678
:102F9000A8C0E5E3F0E08FEF80838EA5882F90E056
:102FA000FC01EC51FE4F808160E00E94BD0C80E08E
:102FB00090E0A0E8BFE38B879C87AD87BE876B85D9
:102FC0007C858D859E8520E030E04AE755E40E94AF
:102FD0001F02DC01CB018F839887A987BA876F8195
:102FE000788589859A8520E030E040E85FE30E949B
:102FF000250488232CF481E090E09E838D833FC0DC
:103000006F81788589859A8520E03FEF4FE757E407
:103010000E94C50318164CF56B857C858D859E85B1
:1030200020E030E040E251E40E941F02DC01CB01CD
:10303000BC01CD010E944900DC01CB019E838D8340
:103040000FC080E991E09C838B838B819C810197E9
:10305000F1F79C838B838D819E8101979E838D8365
:103060008D819E81009769F714C06F81788589856D
:103070009A850E944900DC01CB019E838D838D815E
:103080009E819A83898389819A810197F1F79A8336
:1030900089831DA620C08DA5882F90E0FC01E851F2
:1030A000FE4F80810E94370C882391F48EA5482F13
:1030B00050E08DA5282F30E0CA01880F991F880F96
:1030C000991F820F931FFC01EC52FE4F80818CA749
:1030D0008DA58F5F8DA78DA58430E8F28EA58F5FBB
:1030E0008EA78EA5843008F454CF8CA5AE960FB66B
:1030F000F894DEBF0FBECDBFCF91DF910895DF936F
:10310000CF93CDB7DEB762970FB6F894DEBF0FBE90
:10311000CDBF188A1F868CEE91E00E94C1090E94E3
:10312000F31280E690E00E94BA1481E062E00E940F
:10313000741582E790E00E94BA1489E062E00E9470
:1031400074158AE790E00E94BA1481E063E00E945F
:10315000741581E890E00E94BA1489E063E00E944F
:10316000741589E890E00E94BA140E94B816282FBE
:1031700030E03A8B298B89899A898230910509F14F
:1031800029893A892330310534F489899A89813033
:10319000910561F036C029893A8923303105E1F083
:1031A00089899A898430910511F12BC081E00E94B0
:1031B000A91480E990E00E94BA1481E08093C901CB
:1031C00020C081E00E94A91486E990E00E94BA1410
:1031D00082E08093C90115C081E00E94A9148BE9A7
:1031E00090E00E94BA1483E08093C9010AC081E094
:1031F0000E94A91481EA90E00E94BA1484E08093AE
:10320000C90180E090E0AAE7B4E48B879C87AD8792
:10321000BE876B857C858D859E8520E030E04AE702
:1032200055E40E941F02DC01CB018F839887A98798
:10323000BA876F81788589859A8520E030E040E8FB
:103240005FE30E94250488232CF481E090E09E83B4
:103250008D833FC06F81788589859A8520E03FEF17
:103260004FE757E40E94C50318164CF56B857C8523
:103270008D859E8520E030E040E251E40E941F02EF
:10328000DC01CB01BC01CD010E944900DC01CB0176
:103290009E838D830FC080E991E09C838B838B811B
:1032A0009C810197F1F79C838B838D819E8101978F
:1032B0009E838D838D819E81009769F714C06F81F5
:1032C000788589859A850E944900DC01CB019E831F
:1032D0008D838D819E819A83898389819A810197CB
:1032E000F1F79A8389838091C901482F50E080913A
:1032F000C801282F30E0CA01B9010E94A21681E05E
:103300000E94A91487EA90E00E94BA1481E062E06A
:103310000E9474150E94B8168093C8018091C8015C
:10332000805D0E9498148F858F5F8F8723C00E94D5
:10333000B816888B8889833401F18091C801882F61
:1033400090E09C01220F331FC901880F991F880F3D
:10335000991F820F931F8093C8019091C80188899B
:10336000890F8093C8018889805D0E9498148F8599
:103370008F5F8F8788898334D1F681E063E00E9474
:1033800074158091C801853638F084EB90E00E9476
:10339000BA141092C8010AC08091C801882F90E029
:1033A000A0E0B0E0BC01CD010E94D6148091C9011B
:1033B000482F50E08091C801282F30E0CA01B901A0
:1033C0000E94A21662960FB6F894DEBF0FBECDBF64
:1033D000CF91DF910895DF93CF93CDB7DEB72E97CE
:1033E0000FB6F894DEBF0FBECDBF0E94170781E075
:1033F00060E00E9460160E947F1880E090E0AAE7DB
:10340000B4E48B879C87AD87BE876B857C858D8573
:103410009E8520E030E04AE755E40E941F02DC016F
:10342000CB018F839887A987BA876F817885898533
:103430009A8520E030E040E85FE30E94250488237D
:103440002CF481E090E09E838D833FC06F8178856E
:1034500089859A8520E03FEF4FE757E40E94C50336
:1034600018164CF56B857C858D859E8520E030E0B7
:1034700040E251E40E941F02DC01CB01BC01CD01FE
:103480000E944900DC01CB019E838D830FC080E93F
:1034900091E09C838B838B819C810197F1F79C83C6
:1034A0008B838D819E8101979E838D838D819E81EB
:1034B000009769F7A0CF6F81788589859A850E94EA
:1034C0004900DC01CB019E838D838D819E819A838F
:1034D000898389819A810197F1F79A8389838BCFB8
:1034E000629FD001739FF001829FE00DF11D649FE8
:1034F000E00DF11D929FF00D839FF00D749FF00D74
:10350000659FF00D9927729FB00DE11DF91F639F14
:10351000B00DE11DF91FBD01CF0111240895991BC4
:1035200079E004C0991F961708F0961B881F7A95BA
:10353000C9F780950895AA1BBB1B51E107C0AA1FBC
:10354000BB1FA617B70710F0A61BB70B881F991F44
:103550005A95A9F780959095BC01CD01089597FBE8
:10356000092E07260AD077FD04D0E5DF06D000201B
:103570001AF4709561957F4F0895F6F790958195AF
:103580009F4F0895A1E21A2EAA1BBB1BFD010DC07F
:10359000AA1FBB1FEE1FFF1FA217B307E407F50703
:1035A00020F0A21BB30BE40BF50B661F771F881FDF
:1035B000991F1A9469F760957095809590959B0175
:1035C000AC01BD01CF01089597FB092E05260ED051
:1035D00057FD04D0D7DF0AD0001C38F45095409531
:1035E000309521953F4F4F4F5F4F0895F6F79095D7
:1035F0008095709561957F4F8F4F9F4F08952F92C3
:103600003F924F925F926F927F928F929F92AF9272
:10361000BF92CF92DF92EF92FF920F931F93CF93BF
:10362000DF93CDB7DEB7CA1BDB0B0FB6F894DEBF56
:103630000FBECDBF09942A88398848885F846E847C
:103640007D848C849B84AA84B984C884DF80EE80C6
:10365000FD800C811B81AA81B981CE0FD11D0FB6CF
:10366000F894DEBF0FBECDBFED010895F894FFCFF3
:1036700053656C656374204672657175656E637918
:103680003A00312D33316B487A00322D346B487A51
:1036900000332D353030487A00342D3330487A00ED
:1036A00033316B487A00346B487A00353030487AD1
:1036B00000313232487A00456E7465722044757468
:1036C000793A200057726F6E672056616C756500FD
:1036D00000000000000000000001020203030303D9
:1036E0000404040404040404050505050505050592
:1036F0000505050505050505060606060606060672
:103700000606060606060606060606060606060659
:103710000606060606060606070707070707070741
:103720000707070707070707070707070707070729
:103730000707070707070707070707070707070719
:103740000707070707070707070707070707070709
:1037500007070707070707070808080808080808F1
:1037600008080808080808080808080808080808D9
:1037700008080808080808080808080808080808C9
:1037800008080808080808080808080808080808B9
:1037900008080808080808080808080808080808A9
:1037A0000808080808080808080808080808080899
:1037B0000808080808080808080808080808080889
:1037C0000808080808080808080808080808080879
:1037D00008080808080808080A0100000100080095
:1037E000400000040708092F040506780102032D94
:1037F00043003D2B232221202F2E2D2B1A000101C7
:10380000190001012F0100002E0100002D01000010
:103810002B01000014000101150001011600010137
:10382000180001010D0001010C000101230101013B
:103830002201010121010101200101011700010103
:103840000000000000000000000000000000000078
:103850000000000000000000000000000000000068
:10386000000000000000000000000000054830FAE1
:00000001FF
